{
  "contractName": "Debug1",
  "abi": [
    {
      "constant": true,
      "inputs": [],
      "name": "result",
      "outputs": [
        {
          "internalType": "uint256",
          "name": "",
          "type": "uint256"
        }
      ],
      "payable": false,
      "stateMutability": "view",
      "type": "function"
    },
    {
      "constant": false,
      "inputs": [
        {
          "internalType": "uint256",
          "name": "q",
          "type": "uint256"
        }
      ],
      "name": "initialize",
      "outputs": [],
      "payable": false,
      "stateMutability": "nonpayable",
      "type": "function"
    },
    {
      "constant": false,
      "inputs": [
        {
          "internalType": "uint256",
          "name": "x",
          "type": "uint256"
        }
      ],
      "name": "set",
      "outputs": [],
      "payable": false,
      "stateMutability": "nonpayable",
      "type": "function"
    }
  ],
  "bytecode": "0x608060405234801561001057600080fd5b50610272806100206000396000f3fe608060405234801561001057600080fd5b50600436106100415760003560e01c806360fe47b1146100465780636537214714610074578063fe4b84df14610092575b600080fd5b6100726004803603602081101561005c57600080fd5b81019080803590602001909291905050506100c0565b005b61007c6100eb565b6040518082815260200191505060405180910390f35b6100be600480360360208110156100a857600080fd5b81019080803590602001909291905050506100f1565b005b6001810190506002810190506004810190506006810190506008810190506002810260338190555050565b60335481565b600060019054906101000a900460ff1680610110575061010f6101f8565b5b8061012757506000809054906101000a900460ff16155b61017c576040517f08c379a000000000000000000000000000000000000000000000000000000000815260040180806020018281038252602e815260200180610210602e913960400191505060405180910390fd5b60008060019054906101000a900460ff1615905080156101cc576001600060016101000a81548160ff02191690831515021790555060016000806101000a81548160ff0219169083151502179055505b8160338190555080156101f45760008060016101000a81548160ff0219169083151502179055505b5050565b6000803090506000813b905060008114925050509056fe436f6e747261637420696e7374616e63652068617320616c7265616479206265656e20696e697469616c697a6564a265627a7a723158209a7b21e753254de9e2477ae083277c464d5ca5e2a6294b6d95c3161d8117658264736f6c63430005100032",
  "source": "// SPDX-License-Identifier: MIT\n// npm install @openzeppelin/truffle-upgrades\n\npragma solidity ^0.5.0;\nimport \"@openzeppelin/upgrades-core/contracts/Initializable.sol\";\n\ncontract Debug1 is Initializable { \n    uint public result;  \n    \n    function initialize(uint q) public initializer {\n        result = q;\n    }   \n    function set(uint x) public {\n      x +=1;\n      x +=2;\n      x +=4;\n      x +=6;\n      x +=8;\n      result = x*2;  \n    }\n}",
  "sourcePath": "C:/Opdr9/contracts/Debug1.sol",
  "compiler": {
    "name": "solc",
    "version": "0.5.16+commit.9c3226ce.Emscripten.clang"
  },
  "schemaVersion": "3.3.3",
  "updatedAt": "2021-01-29T13:22:49.849Z",
  "networkType": "ethereum",
  "devdoc": {
    "methods": {}
  },
  "userdoc": {
    "methods": {}
  }
}