{
  "contractName": "Greetings",
  "abi": [
    {
      "inputs": [],
      "name": "creationTime",
      "outputs": [
        {
          "internalType": "uint256",
          "name": "",
          "type": "uint256"
        }
      ],
      "stateMutability": "view",
      "type": "function"
    },
    {
      "inputs": [],
      "name": "owner",
      "outputs": [
        {
          "internalType": "address",
          "name": "",
          "type": "address"
        }
      ],
      "stateMutability": "view",
      "type": "function"
    },
    {
      "inputs": [
        {
          "internalType": "string",
          "name": "_greeting",
          "type": "string"
        }
      ],
      "name": "initialize",
      "outputs": [],
      "stateMutability": "nonpayable",
      "type": "function"
    },
    {
      "inputs": [],
      "name": "greet",
      "outputs": [
        {
          "internalType": "string",
          "name": "",
          "type": "string"
        }
      ],
      "stateMutability": "nonpayable",
      "type": "function"
    },
    {
      "inputs": [],
      "name": "getBlockNumber",
      "outputs": [
        {
          "internalType": "uint256",
          "name": "",
          "type": "uint256"
        }
      ],
      "stateMutability": "nonpayable",
      "type": "function"
    },
    {
      "inputs": [
        {
          "internalType": "string",
          "name": "_newgreeting",
          "type": "string"
        }
      ],
      "name": "setGreeting",
      "outputs": [],
      "stateMutability": "nonpayable",
      "type": "function"
    },
    {
      "inputs": [],
      "name": "Done",
      "outputs": [
        {
          "internalType": "string",
          "name": "",
          "type": "string"
        }
      ],
      "stateMutability": "nonpayable",
      "type": "function"
    },
    {
      "inputs": [],
      "name": "f",
      "outputs": [
        {
          "internalType": "string",
          "name": "",
          "type": "string"
        }
      ],
      "stateMutability": "payable",
      "type": "function"
    }
  ],
  "bytecode": "0x60806040524260365534801561001457600080fd5b50610c06806100246000396000f3fe60806040526004361061007b5760003560e01c8063a41368621161004e578063a4136862146101ff578063cfae3217146102c7578063d8270dce14610357578063f62d1888146103825761007b565b806326121ff01461008057806342cbb15c146101035780638da5cb5b1461012e5780639f9fb4341461016f575b600080fd5b61008861044a565b6040518080602001828103825283818151815260200191508051906020019080838360005b838110156100c85780820151818401526020810190506100ad565b50505050905090810190601f1680156100f55780820380516001836020036101000a031916815260200191505b509250505060405180910390f35b34801561010f57600080fd5b506101186106e0565b6040518082815260200191505060405180910390f35b34801561013a57600080fd5b506101436106e8565b604051808273ffffffffffffffffffffffffffffffffffffffff16815260200191505060405180910390f35b34801561017b57600080fd5b5061018461070e565b6040518080602001828103825283818151815260200191508051906020019080838360005b838110156101c45780820151818401526020810190506101a9565b50505050905090810190601f1680156101f15780820380516001836020036101000a031916815260200191505b509250505060405180910390f35b34801561020b57600080fd5b506102c56004803603602081101561022257600080fd5b810190808035906020019064010000000081111561023f57600080fd5b82018360208201111561025157600080fd5b8035906020019184600183028401116401000000008311171561027357600080fd5b91908080601f016020809104026020016040519081016040528093929190818152602001838380828437600081840152601f19601f820116905080830192505050505050509192919290505050610810565b005b3480156102d357600080fd5b506102dc61082a565b6040518080602001828103825283818151815260200191508051906020019080838360005b8381101561031c578082015181840152602081019050610301565b50505050905090810190601f1680156103495780820380516001836020036101000a031916815260200191505b509250505060405180910390f35b34801561036357600080fd5b5061036c610991565b6040518082815260200191505060405180910390f35b34801561038e57600080fd5b50610448600480360360208110156103a557600080fd5b81019080803590602001906401000000008111156103c257600080fd5b8201836020820111156103d457600080fd5b803590602001918460018302840111640100000000831117156103f657600080fd5b91908080601f016020809104026020016040519081016040528093929190818152602001838380828437600081840152601f19601f820116905080830192505050505050509192919290505050610997565b005b6060603460009054906101000a900473ffffffffffffffffffffffffffffffffffffffff168073ffffffffffffffffffffffffffffffffffffffff163373ffffffffffffffffffffffffffffffffffffffff1614610510576040517f08c379a000000000000000000000000000000000000000000000000000000000815260040180806020018281038252600d8152602001807f57726f6e6720616464726573730000000000000000000000000000000000000081525060200191505060405180910390fd5b671bc16d674ec800008034101561058f576040517f08c379a00000000000000000000000000000000000000000000000000000000081526004018080602001828103825260138152602001807f4e6f7420656e6f756768204554482073656e640000000000000000000000000081525060200191505060405180910390fd5b603c6036540180421161060a576040517f08c379a00000000000000000000000000000000000000000000000000000000081526004018080602001828103825260088152602001807f546f6f20736f6f6e00000000000000000000000000000000000000000000000081525060200191505060405180910390fd5b6802b5e3af16b18800003373ffffffffffffffffffffffffffffffffffffffff16311015806106a1576040517f08c379a00000000000000000000000000000000000000000000000000000000081526004018080602001828103825260108152602001807f436f6e646974696f6e206661696c65640000000000000000000000000000000081525060200191505060405180910390fd5b6040518060400160405280600481526020017f446f6e650000000000000000000000000000000000000000000000000000000081525094505050505090565b600043905090565b603460009054906101000a900473ffffffffffffffffffffffffffffffffffffffff1681565b6060603460009054906101000a900473ffffffffffffffffffffffffffffffffffffffff168073ffffffffffffffffffffffffffffffffffffffff163373ffffffffffffffffffffffffffffffffffffffff16146107d4576040517f08c379a000000000000000000000000000000000000000000000000000000000815260040180806020018281038252600d8152602001807f57726f6e6720616464726573730000000000000000000000000000000000000081525060200191505060405180910390fd5b6040518060400160405280600481526020017f446f6e650000000000000000000000000000000000000000000000000000000081525091505090565b8060359080519060200190610826929190610b05565b5050565b6060603460009054906101000a900473ffffffffffffffffffffffffffffffffffffffff168073ffffffffffffffffffffffffffffffffffffffff163373ffffffffffffffffffffffffffffffffffffffff16146108f0576040517f08c379a000000000000000000000000000000000000000000000000000000000815260040180806020018281038252600d8152602001807f57726f6e6720616464726573730000000000000000000000000000000000000081525060200191505060405180910390fd5b60358054600181600116156101000203166002900480601f0160208091040260200160405190810160405280929190818152602001828054600181600116156101000203166002900480156109865780601f1061095b57610100808354040283529160200191610986565b820191906000526020600020905b81548152906001019060200180831161096957829003601f168201915b505050505091505090565b60365481565b600060019054906101000a900460ff16806109b657506109b5610aee565b5b806109cc575060008054906101000a900460ff16155b610a21576040517f08c379a000000000000000000000000000000000000000000000000000000000815260040180806020018281038252602e815260200180610ba3602e913960400191505060405180910390fd5b60008060019054906101000a900460ff161590508015610a71576001600060016101000a81548160ff02191690831515021790555060016000806101000a81548160ff0219169083151502179055505b33603360006101000a81548173ffffffffffffffffffffffffffffffffffffffff021916908373ffffffffffffffffffffffffffffffffffffffff1602179055508160359080519060200190610ac8929190610b05565b508015610aea5760008060016101000a81548160ff0219169083151502179055505b5050565b6000803090506000813b9050600081149250505090565b828054600181600116156101000203166002900490600052602060002090601f016020900481019282601f10610b4657805160ff1916838001178555610b74565b82800160010185558215610b74579182015b82811115610b73578251825591602001919060010190610b58565b5b509050610b819190610b85565b5090565b5b80821115610b9e576000816000905550600101610b86565b509056fe436f6e747261637420696e7374616e63652068617320616c7265616479206265656e20696e697469616c697a6564a26469706673582212202196dbd9b18b69b37cffb053d4cc8076beb2ad64162289a3f8a0656779fc024364736f6c634300060c0033",
  "immutableReferences": {},
  "source": "pragma solidity ^0.6.0;\r\nimport \"@openzeppelin/upgrades-core/contracts/Initializable.sol\";\r\n\r\n/// @title Greetings\r\n/// @author Marshano Nathie\r\ncontract Greetings is Initializable {\r\n\r\n    // At first, an empty \"address\"-type variable of the name \"creator\". Will be set in the constructor.\r\n    address creator;\r\n    \r\n    address public owner;\r\n    // At first, an empty \"string\"-type variable of the name \"greeting\". Will be set in constructor and can be changed.\r\n    string greeting;\r\n    \r\n    // Modifier for Only Owner\r\n    modifier onlyOwner(){\r\n        require(msg.sender == owner, \"Must be owner\");   _;\r\n    }\r\n    \r\n    // Modifier for Only by adress\r\n    modifier onlyBy(address account) {\r\n        require(msg.sender == account, \"Wrong address\"); _;\r\n    }\r\n    \r\n\r\n    function initialize(string memory _greeting) public initializer {\r\n             creator = msg.sender;\r\n    greeting = _greeting;\r\n }\r\n    \r\n    //Return greeting\r\n    function greet() onlyBy(owner) public returns (string memory) {\r\n        return greeting;\r\n    }\r\n\r\n    function getBlockNumber() public returns (uint) {\r\n        return block.number;\r\n    }\r\n    \r\n    //Set greeting\r\n    function setGreeting(string memory _newgreeting) public {\r\n        greeting = _newgreeting;\r\n    }\r\n    \r\n    function Done()\r\n     onlyBy(owner)\r\n     public returns(string memory) {\r\n         return \"Done\";\r\n     }\r\n    \r\n  //  function kill() onlyBy(owner) public {\r\n //       if (msg.sender == creator)\r\n  //          selfdestruct(creator);\r\n  //  }     \r\n\r\n    uint public  creationTime = block.timestamp;\r\n    modifier onlyBefore(uint _time)     { require(block.timestamp < _time,  \"Too late\");            _;}\r\n    modifier onlyAfter(uint _time)      { require(block.timestamp > _time,  \"Too soon\");            _;}\r\n    modifier condition(bool _condition) { require(_condition,               \"Condition failed\");    _;}\r\n    modifier minAmount(uint _amount)    { require(msg.value >= _amount,     \"Not enough ETH send\"); _;}\r\n\r\n    function f() payable \r\n        onlyBy(owner) \r\n        minAmount(2 ether) \r\n        onlyAfter(creationTime + 1 minutes) \r\n        condition(msg.sender.balance >= 50 ether) \r\n        public returns(string memory) { // code\r\n            return \"Done\";\r\n    \r\n    }\r\n}",
  "sourcePath": "C:/Opdr9/contracts/Opdr9.sol",
  "compiler": {
    "name": "solc",
    "version": "0.6.12+commit.27d51765.Emscripten.clang"
  },
  "schemaVersion": "3.3.3",
  "updatedAt": "2021-01-29T14:03:39.149Z",
  "devdoc": {
    "author": "Marshano Nathie",
    "kind": "dev",
    "methods": {},
    "title": "Greetings",
    "version": 1
  },
  "userdoc": {
    "kind": "user",
    "methods": {},
    "version": 1
  }
}