{
  "contractName": "Debug",
  "abi": [
    {
      "constant": true,
      "inputs": [],
      "name": "result",
      "outputs": [
        {
          "internalType": "uint256",
          "name": "",
          "type": "uint256"
        }
      ],
      "payable": false,
      "stateMutability": "view",
      "type": "function"
    },
    {
      "constant": false,
      "inputs": [
        {
          "internalType": "uint256",
          "name": "x",
          "type": "uint256"
        }
      ],
      "name": "set",
      "outputs": [],
      "payable": false,
      "stateMutability": "nonpayable",
      "type": "function"
    }
  ],
  "bytecode": "0x608060405234801561001057600080fd5b5060e48061001f6000396000f3fe6080604052348015600f57600080fd5b506004361060325760003560e01c806360fe47b114603757806365372147146062575b600080fd5b606060048036036020811015604b57600080fd5b8101908080359060200190929190505050607e565b005b606860a9565b6040518082815260200191505060405180910390f35b6001810190506002810190506004810190506006810190506008810190506002810260008190555050565b6000548156fea265627a7a72315820143515bca4dc86c5d6dc1ce78b400d7a6e878d637f0b533265b6dcc631fc11b064736f6c63430005100032",
  "source": "pragma solidity ^0.5.12;\ncontract Debug {\n\tuint public result;\n\tfunction set(uint x) public {\n\t\tx +=1;\n\t\tx +=2;\n\t\tx +=4;\n\t\tx +=6;\n\t\tx +=8;\n\t\tresult = x*2;\n\t}\n\n}",
  "sourcePath": "C:/TruffleW7/contracts/Debug.sol",
  "compiler": {
    "name": "solc",
    "version": "0.5.16+commit.9c3226ce.Emscripten.clang"
  },
  "schemaVersion": "3.3.3",
  "updatedAt": "2021-01-28T16:19:19.540Z",
  "devdoc": {
    "methods": {}
  },
  "userdoc": {
    "methods": {}
  }
}